{
    "_format": "hh-sol-artifact-1",
    "contractName": "TimeSwap",
    "sourceName": "contracts/TimeSwap.sol",
    "abi": [
        {
            "inputs": [
                {
                    "internalType": "contract TimeToken",
                    "name": "_timeToken",
                    "type": "address"
                }
            ],
            "stateMutability": "nonpayable",
            "type": "constructor"
        },
        {
            "inputs": [
                {
                    "internalType": "address",
                    "name": "owner",
                    "type": "address"
                }
            ],
            "name": "OwnableInvalidOwner",
            "type": "error"
        },
        {
            "inputs": [
                {
                    "internalType": "address",
                    "name": "account",
                    "type": "address"
                }
            ],
            "name": "OwnableUnauthorizedAccount",
            "type": "error"
        },
        {
            "inputs": [],
            "name": "ReentrancyGuardReentrantCall",
            "type": "error"
        },
        {
            "anonymous": false,
            "inputs": [
                {
                    "indexed": true,
                    "internalType": "address",
                    "name": "previousOwner",
                    "type": "address"
                },
                {
                    "indexed": true,
                    "internalType": "address",
                    "name": "newOwner",
                    "type": "address"
                }
            ],
            "name": "OwnershipTransferred",
            "type": "event"
        },
        {
            "anonymous": false,
            "inputs": [
                {
                    "indexed": true,
                    "internalType": "address",
                    "name": "user",
                    "type": "address"
                },
                {
                    "indexed": false,
                    "internalType": "uint256",
                    "name": "newReputation",
                    "type": "uint256"
                }
            ],
            "name": "ReputationUpdated",
            "type": "event"
        },
        {
            "anonymous": false,
            "inputs": [
                {
                    "indexed": true,
                    "internalType": "uint256",
                    "name": "serviceId",
                    "type": "uint256"
                },
                {
                    "indexed": true,
                    "internalType": "address",
                    "name": "provider",
                    "type": "address"
                },
                {
                    "indexed": false,
                    "internalType": "string",
                    "name": "title",
                    "type": "string"
                }
            ],
            "name": "ServiceCreated",
            "type": "event"
        },
        {
            "anonymous": false,
            "inputs": [
                {
                    "indexed": true,
                    "internalType": "uint256",
                    "name": "serviceId",
                    "type": "uint256"
                },
                {
                    "indexed": false,
                    "internalType": "bool",
                    "name": "isActive",
                    "type": "bool"
                }
            ],
            "name": "ServiceUpdated",
            "type": "event"
        },
        {
            "anonymous": false,
            "inputs": [
                {
                    "indexed": true,
                    "internalType": "uint256",
                    "name": "tradeId",
                    "type": "uint256"
                }
            ],
            "name": "TradeCompleted",
            "type": "event"
        },
        {
            "anonymous": false,
            "inputs": [
                {
                    "indexed": true,
                    "internalType": "uint256",
                    "name": "tradeId",
                    "type": "uint256"
                }
            ],
            "name": "TradeDisputed",
            "type": "event"
        },
        {
            "anonymous": false,
            "inputs": [
                {
                    "indexed": true,
                    "internalType": "uint256",
                    "name": "tradeId",
                    "type": "uint256"
                },
                {
                    "indexed": true,
                    "internalType": "address",
                    "name": "buyer",
                    "type": "address"
                },
                {
                    "indexed": true,
                    "internalType": "address",
                    "name": "seller",
                    "type": "address"
                }
            ],
            "name": "TradeInitiated",
            "type": "event"
        },
        {
            "inputs": [],
            "name": "DISPUTE_PENALTY",
            "outputs": [
                {
                    "internalType": "uint256",
                    "name": "",
                    "type": "uint256"
                }
            ],
            "stateMutability": "view",
            "type": "function"
        },
        {
            "inputs": [],
            "name": "REPUTATION_PER_TRADE",
            "outputs": [
                {
                    "internalType": "uint256",
                    "name": "",
                    "type": "uint256"
                }
            ],
            "stateMutability": "view",
            "type": "function"
        },
        {
            "inputs": [
                {
                    "internalType": "uint256",
                    "name": "_tradeId",
                    "type": "uint256"
                }
            ],
            "name": "completeTrade",
            "outputs": [],
            "stateMutability": "nonpayable",
            "type": "function"
        },
        {
            "inputs": [
                {
                    "internalType": "string",
                    "name": "_title",
                    "type": "string"
                },
                {
                    "internalType": "string",
                    "name": "_description",
                    "type": "string"
                }
            ],
            "name": "createService",
            "outputs": [],
            "stateMutability": "nonpayable",
            "type": "function"
        },
        {
            "inputs": [
                {
                    "internalType": "uint256",
                    "name": "_tradeId",
                    "type": "uint256"
                }
            ],
            "name": "disputeTrade",
            "outputs": [],
            "stateMutability": "nonpayable",
            "type": "function"
        },
        {
            "inputs": [
                {
                    "internalType": "uint256",
                    "name": "_serviceId",
                    "type": "uint256"
                }
            ],
            "name": "getServiceDetails",
            "outputs": [
                {
                    "internalType": "string",
                    "name": "title",
                    "type": "string"
                },
                {
                    "internalType": "string",
                    "name": "description",
                    "type": "string"
                },
                {
                    "internalType": "address",
                    "name": "provider",
                    "type": "address"
                },
                {
                    "internalType": "bool",
                    "name": "isActive",
                    "type": "bool"
                },
                {
                    "internalType": "uint256",
                    "name": "reputation",
                    "type": "uint256"
                }
            ],
            "stateMutability": "view",
            "type": "function"
        },
        {
            "inputs": [],
            "name": "getServices",
            "outputs": [
                {
                    "components": [
                        {
                            "internalType": "string",
                            "name": "title",
                            "type": "string"
                        },
                        {
                            "internalType": "string",
                            "name": "description",
                            "type": "string"
                        },
                        {
                            "internalType": "address",
                            "name": "provider",
                            "type": "address"
                        },
                        {
                            "internalType": "bool",
                            "name": "isActive",
                            "type": "bool"
                        },
                        {
                            "internalType": "uint256",
                            "name": "reputation",
                            "type": "uint256"
                        }
                    ],
                    "internalType": "struct TimeSwap.Service[]",
                    "name": "",
                    "type": "tuple[]"
                }
            ],
            "stateMutability": "view",
            "type": "function"
        },
        {
            "inputs": [
                {
                    "internalType": "address",
                    "name": "_user",
                    "type": "address"
                }
            ],
            "name": "getUserServices",
            "outputs": [
                {
                    "internalType": "uint256[]",
                    "name": "",
                    "type": "uint256[]"
                }
            ],
            "stateMutability": "view",
            "type": "function"
        },
        {
            "inputs": [
                {
                    "internalType": "address",
                    "name": "_user",
                    "type": "address"
                }
            ],
            "name": "getUserTrades",
            "outputs": [
                {
                    "internalType": "uint256[]",
                    "name": "",
                    "type": "uint256[]"
                }
            ],
            "stateMutability": "view",
            "type": "function"
        },
        {
            "inputs": [
                {
                    "internalType": "uint256",
                    "name": "_serviceId",
                    "type": "uint256"
                },
                {
                    "internalType": "uint256",
                    "name": "_hours",
                    "type": "uint256"
                }
            ],
            "name": "initiateTrade",
            "outputs": [],
            "stateMutability": "nonpayable",
            "type": "function"
        },
        {
            "inputs": [],
            "name": "owner",
            "outputs": [
                {
                    "internalType": "address",
                    "name": "",
                    "type": "address"
                }
            ],
            "stateMutability": "view",
            "type": "function"
        },
        {
            "inputs": [],
            "name": "renounceOwnership",
            "outputs": [],
            "stateMutability": "nonpayable",
            "type": "function"
        },
        {
            "inputs": [],
            "name": "serviceCounter",
            "outputs": [
                {
                    "internalType": "uint256",
                    "name": "",
                    "type": "uint256"
                }
            ],
            "stateMutability": "view",
            "type": "function"
        },
        {
            "inputs": [
                {
                    "internalType": "uint256",
                    "name": "",
                    "type": "uint256"
                }
            ],
            "name": "services",
            "outputs": [
                {
                    "internalType": "string",
                    "name": "title",
                    "type": "string"
                },
                {
                    "internalType": "string",
                    "name": "description",
                    "type": "string"
                },
                {
                    "internalType": "address",
                    "name": "provider",
                    "type": "address"
                },
                {
                    "internalType": "bool",
                    "name": "isActive",
                    "type": "bool"
                },
                {
                    "internalType": "uint256",
                    "name": "reputation",
                    "type": "uint256"
                }
            ],
            "stateMutability": "view",
            "type": "function"
        },
        {
            "inputs": [],
            "name": "timeToken",
            "outputs": [
                {
                    "internalType": "contract TimeToken",
                    "name": "",
                    "type": "address"
                }
            ],
            "stateMutability": "view",
            "type": "function"
        },
        {
            "inputs": [],
            "name": "tradeCounter",
            "outputs": [
                {
                    "internalType": "uint256",
                    "name": "",
                    "type": "uint256"
                }
            ],
            "stateMutability": "view",
            "type": "function"
        },
        {
            "inputs": [
                {
                    "internalType": "uint256",
                    "name": "",
                    "type": "uint256"
                }
            ],
            "name": "trades",
            "outputs": [
                {
                    "internalType": "address",
                    "name": "buyer",
                    "type": "address"
                },
                {
                    "internalType": "address",
                    "name": "seller",
                    "type": "address"
                },
                {
                    "internalType": "uint256",
                    "name": "amount",
                    "type": "uint256"
                },
                {
                    "internalType": "uint256",
                    "name": "serviceId",
                    "type": "uint256"
                },
                {
                    "internalType": "bool",
                    "name": "isCompleted",
                    "type": "bool"
                },
                {
                    "internalType": "bool",
                    "name": "isDisputed",
                    "type": "bool"
                },
                {
                    "internalType": "uint256",
                    "name": "timestamp",
                    "type": "uint256"
                }
            ],
            "stateMutability": "view",
            "type": "function"
        },
        {
            "inputs": [
                {
                    "internalType": "address",
                    "name": "newOwner",
                    "type": "address"
                }
            ],
            "name": "transferOwnership",
            "outputs": [],
            "stateMutability": "nonpayable",
            "type": "function"
        },
        {
            "inputs": [
                {
                    "internalType": "uint256",
                    "name": "_serviceId",
                    "type": "uint256"
                },
                {
                    "internalType": "bool",
                    "name": "_isActive",
                    "type": "bool"
                }
            ],
            "name": "updateServiceStatus",
            "outputs": [],
            "stateMutability": "nonpayable",
            "type": "function"
        },
        {
            "inputs": [
                {
                    "internalType": "address",
                    "name": "",
                    "type": "address"
                }
            ],
            "name": "userProfiles",
            "outputs": [
                {
                    "internalType": "uint256",
                    "name": "reputation",
                    "type": "uint256"
                },
                {
                    "internalType": "uint256",
                    "name": "totalTrades",
                    "type": "uint256"
                },
                {
                    "internalType": "uint256",
                    "name": "successfulTrades",
                    "type": "uint256"
                }
            ],
            "stateMutability": "view",
            "type": "function"
        },
        {
            "inputs": [
                {
                    "internalType": "address",
                    "name": "",
                    "type": "address"
                },
                {
                    "internalType": "uint256",
                    "name": "",
                    "type": "uint256"
                }
            ],
            "name": "userServices",
            "outputs": [
                {
                    "internalType": "uint256",
                    "name": "",
                    "type": "uint256"
                }
            ],
            "stateMutability": "view",
            "type": "function"
        },
        {
            "inputs": [
                {
                    "internalType": "address",
                    "name": "",
                    "type": "address"
                },
                {
                    "internalType": "uint256",
                    "name": "",
                    "type": "uint256"
                }
            ],
            "name": "userTrades",
            "outputs": [
                {
                    "internalType": "uint256",
                    "name": "",
                    "type": "uint256"
                }
            ],
            "stateMutability": "view",
            "type": "function"
        }
    ],
    "bytecode": "0x608060405234801561001057600080fd5b506040516135fe3803806135fe8339818101604052810190610032919061023f565b336001600081905550600073ffffffffffffffffffffffffffffffffffffffff168173ffffffffffffffffffffffffffffffffffffffff16036100ad5760006040517f1e4fbdf70000000000000000000000000000000000000000000000000000000081526004016100a4919061027b565b60405180910390fd5b6100bc8161010460201b60201c565b5080600260006101000a81548173ffffffffffffffffffffffffffffffffffffffff021916908373ffffffffffffffffffffffffffffffffffffffff16021790555050610296565b6000600160009054906101000a900473ffffffffffffffffffffffffffffffffffffffff16905081600160006101000a81548173ffffffffffffffffffffffffffffffffffffffff021916908373ffffffffffffffffffffffffffffffffffffffff1602179055508173ffffffffffffffffffffffffffffffffffffffff168173ffffffffffffffffffffffffffffffffffffffff167f8be0079c531659141344cd1fd0a4f28419497f9722a3daafe3b4186f6b6457e060405160405180910390a35050565b600080fd5b600073ffffffffffffffffffffffffffffffffffffffff82169050919050565b60006101fa826101cf565b9050919050565b600061020c826101ef565b9050919050565b61021c81610201565b811461022757600080fd5b50565b60008151905061023981610213565b92915050565b600060208284031215610255576102546101ca565b5b60006102638482850161022a565b91505092915050565b610275816101ef565b82525050565b6000602082019050610290600083018461026c565b92915050565b613359806102a56000396000f3fe608060405234801561001057600080fd5b50600436106101425760003560e01c80638ba9f708116100b8578063c22c4f431161007c578063c22c4f431461037f578063c2698c84146103b3578063c9f746a0146103e7578063de1faf7814610403578063e27af3b914610421578063f2fde38b1461043f57610142565b80638ba9f708146102c95780638da5cb5b146102e5578063927c774214610303578063ad22155114610333578063b1b1ffab1461034f57610142565b8063660d15b51161010a578063660d15b51461022d5780636a5e1f921461024b578063715018a61461026757806375417851146102715780637defdd731461028f578063866c8878146102ad57610142565b806308f25916146101475780631e6c598e14610165578063332d56d71461019b57806355404ace146101cd57806357635148146101fd575b600080fd5b61014f61045b565b60405161015c9190611fc9565b60405180910390f35b61017f600480360381019061017a9190612024565b610460565b60405161019297969594939291906120ad565b60405180910390f35b6101b560048036038101906101b09190612148565b6104fc565b6040516101c493929190612175565b60405180910390f35b6101e760048036038101906101e291906121ac565b610526565b6040516101f49190611fc9565b60405180910390f35b61021760048036038101906102129190612148565b610557565b60405161022491906122aa565b60405180910390f35b6102356105ee565b6040516102429190611fc9565b60405180910390f35b61026560048036038101906102609190612412565b6105f4565b005b61026f6107bd565b005b6102796107d1565b6040516102869190612666565b60405180910390f35b610297610a2a565b6040516102a49190611fc9565b60405180910390f35b6102c760048036038101906102c291906126b4565b610a30565b005b6102e360048036038101906102de9190612024565b610b32565b005b6102ed610f00565b6040516102fa91906126f4565b60405180910390f35b61031d60048036038101906103189190612148565b610f2a565b60405161032a91906122aa565b60405180910390f35b61034d60048036038101906103489190612024565b610fc1565b005b610369600480360381019061036491906121ac565b611350565b6040516103769190611fc9565b60405180910390f35b61039960048036038101906103949190612024565b611381565b6040516103aa959493929190612759565b60405180910390f35b6103cd60048036038101906103c89190612024565b6114f4565b6040516103de959493929190612759565b60405180910390f35b61040160048036038101906103fc91906127ba565b611682565b005b61040b611d13565b6040516104189190611fc9565b60405180910390f35b610429611d18565b6040516104369190612859565b60405180910390f35b61045960048036038101906104549190612148565b611d3e565b005b601481565b60046020528060005260406000206000915090508060000160009054906101000a900473ffffffffffffffffffffffffffffffffffffffff16908060010160009054906101000a900473ffffffffffffffffffffffffffffffffffffffff16908060020154908060030154908060040160009054906101000a900460ff16908060040160019054906101000a900460ff16908060050154905087565b60056020528060005260406000206000915090508060000154908060010154908060020154905083565b6006602052816000526040600020818154811061054257600080fd5b90600052602060002001600091509150505481565b6060600660008373ffffffffffffffffffffffffffffffffffffffff1673ffffffffffffffffffffffffffffffffffffffff1681526020019081526020016000208054806020026020016040519081016040528092919081815260200182805480156105e257602002820191906000526020600020905b8154815260200190600101908083116105ce575b50505050509050919050565b60095481565b600060086000815480929190610609906128a3565b9190505590506040518060a001604052808481526020018381526020013373ffffffffffffffffffffffffffffffffffffffff16815260200160011515815260200160008152506003600083815260200190815260200160002060008201518160000190816106789190612aed565b50602082015181600101908161068e9190612aed565b5060408201518160020160006101000a81548173ffffffffffffffffffffffffffffffffffffffff021916908373ffffffffffffffffffffffffffffffffffffffff16021790555060608201518160020160146101000a81548160ff02191690831515021790555060808201518160030155905050600660003373ffffffffffffffffffffffffffffffffffffffff1673ffffffffffffffffffffffffffffffffffffffff1681526020019081526020016000208190806001815401808255809150506001900390600052602060002001600090919091909150553373ffffffffffffffffffffffffffffffffffffffff16817f4f61262ead34b30298acaceb42f0ef8c5d6fa3a7568847ea9ee1cc6d9fd1664f856040516107b09190612bbf565b60405180910390a3505050565b6107c5611dc4565b6107cf6000611e4b565b565b6060600060085467ffffffffffffffff8111156107f1576107f06122e7565b5b60405190808252806020026020018201604052801561082a57816020015b610817611f69565b81526020019060019003908161080f5790505b50905060005b600854811015610a2257600360008281526020019081526020016000206040518060a00160405290816000820180546108689061291a565b80601f01602080910402602001604051908101604052809291908181526020018280546108949061291a565b80156108e15780601f106108b6576101008083540402835291602001916108e1565b820191906000526020600020905b8154815290600101906020018083116108c457829003601f168201915b505050505081526020016001820180546108fa9061291a565b80601f01602080910402602001604051908101604052809291908181526020018280546109269061291a565b80156109735780601f1061094857610100808354040283529160200191610973565b820191906000526020600020905b81548152906001019060200180831161095657829003601f168201915b505050505081526020016002820160009054906101000a900473ffffffffffffffffffffffffffffffffffffffff1673ffffffffffffffffffffffffffffffffffffffff1673ffffffffffffffffffffffffffffffffffffffff1681526020016002820160149054906101000a900460ff16151515158152602001600382015481525050828281518110610a0a57610a09612be1565b5b60200260200101819052508080600101915050610830565b508091505090565b60085481565b60006003600084815260200190815260200160002090503373ffffffffffffffffffffffffffffffffffffffff168160020160009054906101000a900473ffffffffffffffffffffffffffffffffffffffff1673ffffffffffffffffffffffffffffffffffffffff1614610ad9576040517f08c379a0000000000000000000000000000000000000000000000000000000008152600401610ad090612c5c565b60405180910390fd5b818160020160146101000a81548160ff021916908315150217905550827f55fc44033d76f0476604037138695d6580815828e512faec38f21fd51a1f2f9e83604051610b259190612c7c565b60405180910390a2505050565b60006004600083815260200190815260200160002090508060000160009054906101000a900473ffffffffffffffffffffffffffffffffffffffff1673ffffffffffffffffffffffffffffffffffffffff163373ffffffffffffffffffffffffffffffffffffffff161480610bf657508060010160009054906101000a900473ffffffffffffffffffffffffffffffffffffffff1673ffffffffffffffffffffffffffffffffffffffff163373ffffffffffffffffffffffffffffffffffffffff16145b610c35576040517f08c379a0000000000000000000000000000000000000000000000000000000008152600401610c2c90612ce3565b60405180910390fd5b8060040160009054906101000a900460ff16158015610c6357508060040160019054906101000a900460ff16155b610ca2576040517f08c379a0000000000000000000000000000000000000000000000000000000008152600401610c9990612d75565b60405180910390fd5b60018160040160016101000a81548160ff0219169083151502179055506000600560008360000160009054906101000a900473ffffffffffffffffffffffffffffffffffffffff1673ffffffffffffffffffffffffffffffffffffffff1673ffffffffffffffffffffffffffffffffffffffff16815260200190815260200160002090506000600560008460010160009054906101000a900473ffffffffffffffffffffffffffffffffffffffff1673ffffffffffffffffffffffffffffffffffffffff1673ffffffffffffffffffffffffffffffffffffffff1681526020019081526020016000209050601482600001541115610db7576014826000016000828254610daf9190612d95565b925050819055505b601481600001541115610de1576014816000016000828254610dd99190612d95565b925050819055505b837f995328816eb12e50ec2691560298922cd9ead6191e59874ef2ef6ca8c766d72560405160405180910390a28260000160009054906101000a900473ffffffffffffffffffffffffffffffffffffffff1673ffffffffffffffffffffffffffffffffffffffff167ffc577563f1b9a0461e24abef1e1fcc0d33d3d881f20b5df6dda59de4aae2c8218360000154604051610e7c9190611fc9565b60405180910390a28260010160009054906101000a900473ffffffffffffffffffffffffffffffffffffffff1673ffffffffffffffffffffffffffffffffffffffff167ffc577563f1b9a0461e24abef1e1fcc0d33d3d881f20b5df6dda59de4aae2c8218260000154604051610ef29190611fc9565b60405180910390a250505050565b6000600160009054906101000a900473ffffffffffffffffffffffffffffffffffffffff16905090565b6060600760008373ffffffffffffffffffffffffffffffffffffffff1673ffffffffffffffffffffffffffffffffffffffff168152602001908152602001600020805480602002602001604051908101604052809291908181526020018280548015610fb557602002820191906000526020600020905b815481526020019060010190808311610fa1575b50505050509050919050565b610fc9611f11565b60006004600083815260200190815260200160002090508060010160009054906101000a900473ffffffffffffffffffffffffffffffffffffffff1673ffffffffffffffffffffffffffffffffffffffff163373ffffffffffffffffffffffffffffffffffffffff1614611072576040517f08c379a000000000000000000000000000000000000000000000000000000000815260040161106990612e15565b60405180910390fd5b8060040160009054906101000a900460ff161580156110a057508060040160019054906101000a900460ff16155b6110df576040517f08c379a00000000000000000000000000000000000000000000000000000000081526004016110d690612d75565b60405180910390fd5b60018160040160006101000a81548160ff021916908315150217905550600260009054906101000a900473ffffffffffffffffffffffffffffffffffffffff1673ffffffffffffffffffffffffffffffffffffffff1663a9059cbb8260010160009054906101000a900473ffffffffffffffffffffffffffffffffffffffff1683600201546040518363ffffffff1660e01b8152600401611181929190612e35565b6020604051808303816000875af11580156111a0573d6000803e3d6000fd5b505050506040513d601f19601f820116820180604052508101906111c49190612e73565b611203576040517f08c379a00000000000000000000000000000000000000000000000000000000081526004016111fa90612eec565b60405180910390fd5b6000600560008360010160009054906101000a900473ffffffffffffffffffffffffffffffffffffffff1673ffffffffffffffffffffffffffffffffffffffff1673ffffffffffffffffffffffffffffffffffffffff168152602001908152602001600020905080600201600081548092919061127f906128a3565b9190505550600a8160000160008282546112999190612f0c565b92505081905550827f60f91a26281f20fb528663f4da55773c83e2ee8a7a5dddb6d1753749e81dc49b60405160405180910390a28160010160009054906101000a900473ffffffffffffffffffffffffffffffffffffffff1673ffffffffffffffffffffffffffffffffffffffff167ffc577563f1b9a0461e24abef1e1fcc0d33d3d881f20b5df6dda59de4aae2c821826000015460405161133b9190611fc9565b60405180910390a2505061134d611f57565b50565b6007602052816000526040600020818154811061136c57600080fd5b90600052602060002001600091509150505481565b60036020528060005260406000206000915090508060000180546113a49061291a565b80601f01602080910402602001604051908101604052809291908181526020018280546113d09061291a565b801561141d5780601f106113f25761010080835404028352916020019161141d565b820191906000526020600020905b81548152906001019060200180831161140057829003601f168201915b5050505050908060010180546114329061291a565b80601f016020809104026020016040519081016040528092919081815260200182805461145e9061291a565b80156114ab5780601f10611480576101008083540402835291602001916114ab565b820191906000526020600020905b81548152906001019060200180831161148e57829003601f168201915b5050505050908060020160009054906101000a900473ffffffffffffffffffffffffffffffffffffffff16908060020160149054906101000a900460ff16908060030154905085565b60608060008060008060036000888152602001908152602001600020905080600001816001018260020160009054906101000a900473ffffffffffffffffffffffffffffffffffffffff168360020160149054906101000a900460ff1684600301548480546115629061291a565b80601f016020809104026020016040519081016040528092919081815260200182805461158e9061291a565b80156115db5780601f106115b0576101008083540402835291602001916115db565b820191906000526020600020905b8154815290600101906020018083116115be57829003601f168201915b505050505094508380546115ee9061291a565b80601f016020809104026020016040519081016040528092919081815260200182805461161a9061291a565b80156116675780601f1061163c57610100808354040283529160200191611667565b820191906000526020600020905b81548152906001019060200180831161164a57829003601f168201915b50505050509350955095509550955095505091939590929450565b61168a611f11565b60006003600084815260200190815260200160002090508060020160149054906101000a900460ff166116f2576040517f08c379a00000000000000000000000000000000000000000000000000000000081526004016116e990612f8c565b60405180910390fd5b3373ffffffffffffffffffffffffffffffffffffffff168160020160009054906101000a900473ffffffffffffffffffffffffffffffffffffffff1673ffffffffffffffffffffffffffffffffffffffff1603611784576040517f08c379a000000000000000000000000000000000000000000000000000000000815260040161177b90612ff8565b60405180910390fd5b6000600260009054906101000a900473ffffffffffffffffffffffffffffffffffffffff1673ffffffffffffffffffffffffffffffffffffffff1663313ce5676040518163ffffffff1660e01b8152600401602060405180830381865afa1580156117f3573d6000803e3d6000fd5b505050506040513d601f19601f820116820180604052508101906118179190613051565b600a61182391906131b1565b8361182e91906131fc565b905080600260009054906101000a900473ffffffffffffffffffffffffffffffffffffffff1673ffffffffffffffffffffffffffffffffffffffff166370a08231336040518263ffffffff1660e01b815260040161188c91906126f4565b602060405180830381865afa1580156118a9573d6000803e3d6000fd5b505050506040513d601f19601f820116820180604052508101906118cd9190613253565b101561190e576040517f08c379a0000000000000000000000000000000000000000000000000000000008152600401611905906132cc565b60405180910390fd5b600260009054906101000a900473ffffffffffffffffffffffffffffffffffffffff1673ffffffffffffffffffffffffffffffffffffffff166323b872dd3330846040518463ffffffff1660e01b815260040161196d939291906132ec565b6020604051808303816000875af115801561198c573d6000803e3d6000fd5b505050506040513d601f19601f820116820180604052508101906119b09190612e73565b6119ef576040517f08c379a00000000000000000000000000000000000000000000000000000000081526004016119e690612eec565b60405180910390fd5b600060096000815480929190611a04906128a3565b9190505590506040518060e001604052803373ffffffffffffffffffffffffffffffffffffffff1681526020018460020160009054906101000a900473ffffffffffffffffffffffffffffffffffffffff1673ffffffffffffffffffffffffffffffffffffffff168152602001838152602001868152602001600015158152602001600015158152602001428152506004600083815260200190815260200160002060008201518160000160006101000a81548173ffffffffffffffffffffffffffffffffffffffff021916908373ffffffffffffffffffffffffffffffffffffffff16021790555060208201518160010160006101000a81548173ffffffffffffffffffffffffffffffffffffffff021916908373ffffffffffffffffffffffffffffffffffffffff160217905550604082015181600201556060820151816003015560808201518160040160006101000a81548160ff02191690831515021790555060a08201518160040160016101000a81548160ff02191690831515021790555060c08201518160050155905050600760003373ffffffffffffffffffffffffffffffffffffffff1673ffffffffffffffffffffffffffffffffffffffff168152602001908152602001600020819080600181540180825580915050600190039060005260206000200160009091909190915055600760008460020160009054906101000a900473ffffffffffffffffffffffffffffffffffffffff1673ffffffffffffffffffffffffffffffffffffffff1673ffffffffffffffffffffffffffffffffffffffff1681526020019081526020016000208190806001815401808255809150506001900390600052602060002001600090919091909150558260020160009054906101000a900473ffffffffffffffffffffffffffffffffffffffff1673ffffffffffffffffffffffffffffffffffffffff163373ffffffffffffffffffffffffffffffffffffffff16827ffb18d6db7a89bc873c443884ce3677f889b8ccdc74226cfbbc0ad5694ac5fbb860405160405180910390a4505050611d0f611f57565b5050565b600a81565b600260009054906101000a900473ffffffffffffffffffffffffffffffffffffffff1681565b611d46611dc4565b600073ffffffffffffffffffffffffffffffffffffffff168173ffffffffffffffffffffffffffffffffffffffff1603611db85760006040517f1e4fbdf7000000000000000000000000000000000000000000000000000000008152600401611daf91906126f4565b60405180910390fd5b611dc181611e4b565b50565b611dcc611f61565b73ffffffffffffffffffffffffffffffffffffffff16611dea610f00565b73ffffffffffffffffffffffffffffffffffffffff1614611e4957611e0d611f61565b6040517f118cdaa7000000000000000000000000000000000000000000000000000000008152600401611e4091906126f4565b60405180910390fd5b565b6000600160009054906101000a900473ffffffffffffffffffffffffffffffffffffffff16905081600160006101000a81548173ffffffffffffffffffffffffffffffffffffffff021916908373ffffffffffffffffffffffffffffffffffffffff1602179055508173ffffffffffffffffffffffffffffffffffffffff168173ffffffffffffffffffffffffffffffffffffffff167f8be0079c531659141344cd1fd0a4f28419497f9722a3daafe3b4186f6b6457e060405160405180910390a35050565b600260005403611f4d576040517f3ee5aeb500000000000000000000000000000000000000000000000000000000815260040160405180910390fd5b6002600081905550565b6001600081905550565b600033905090565b6040518060a001604052806060815260200160608152602001600073ffffffffffffffffffffffffffffffffffffffff168152602001600015158152602001600081525090565b6000819050919050565b611fc381611fb0565b82525050565b6000602082019050611fde6000830184611fba565b92915050565b6000604051905090565b600080fd5b600080fd5b61200181611fb0565b811461200c57600080fd5b50565b60008135905061201e81611ff8565b92915050565b60006020828403121561203a57612039611fee565b5b60006120488482850161200f565b91505092915050565b600073ffffffffffffffffffffffffffffffffffffffff82169050919050565b600061207c82612051565b9050919050565b61208c81612071565b82525050565b60008115159050919050565b6120a781612092565b82525050565b600060e0820190506120c2600083018a612083565b6120cf6020830189612083565b6120dc6040830188611fba565b6120e96060830187611fba565b6120f6608083018661209e565b61210360a083018561209e565b61211060c0830184611fba565b98975050505050505050565b61212581612071565b811461213057600080fd5b50565b6000813590506121428161211c565b92915050565b60006020828403121561215e5761215d611fee565b5b600061216c84828501612133565b91505092915050565b600060608201905061218a6000830186611fba565b6121976020830185611fba565b6121a46040830184611fba565b949350505050565b600080604083850312156121c3576121c2611fee565b5b60006121d185828601612133565b92505060206121e28582860161200f565b9150509250929050565b600081519050919050565b600082825260208201905092915050565b6000819050602082019050919050565b61222181611fb0565b82525050565b60006122338383612218565b60208301905092915050565b6000602082019050919050565b6000612257826121ec565b61226181856121f7565b935061226c83612208565b8060005b8381101561229d5781516122848882612227565b975061228f8361223f565b925050600181019050612270565b5085935050505092915050565b600060208201905081810360008301526122c4818461224c565b905092915050565b600080fd5b600080fd5b6000601f19601f8301169050919050565b7f4e487b7100000000000000000000000000000000000000000000000000000000600052604160045260246000fd5b61231f826122d6565b810181811067ffffffffffffffff8211171561233e5761233d6122e7565b5b80604052505050565b6000612351611fe4565b905061235d8282612316565b919050565b600067ffffffffffffffff82111561237d5761237c6122e7565b5b612386826122d6565b9050602081019050919050565b82818337600083830152505050565b60006123b56123b084612362565b612347565b9050828152602081018484840111156123d1576123d06122d1565b5b6123dc848285612393565b509392505050565b600082601f8301126123f9576123f86122cc565b5b81356124098482602086016123a2565b91505092915050565b6000806040838503121561242957612428611fee565b5b600083013567ffffffffffffffff81111561244757612446611ff3565b5b612453858286016123e4565b925050602083013567ffffffffffffffff81111561247457612473611ff3565b5b612480858286016123e4565b9150509250929050565b600081519050919050565b600082825260208201905092915050565b6000819050602082019050919050565b600081519050919050565b600082825260208201905092915050565b60005b838110156124f05780820151818401526020810190506124d5565b60008484015250505050565b6000612507826124b6565b61251181856124c1565b93506125218185602086016124d2565b61252a816122d6565b840191505092915050565b61253e81612071565b82525050565b61254d81612092565b82525050565b600060a083016000830151848203600086015261257082826124fc565b9150506020830151848203602086015261258a82826124fc565b915050604083015161259f6040860182612535565b5060608301516125b26060860182612544565b5060808301516125c56080860182612218565b508091505092915050565b60006125dc8383612553565b905092915050565b6000602082019050919050565b60006125fc8261248a565b6126068185612495565b935083602082028501612618856124a6565b8060005b85811015612654578484038952815161263585826125d0565b9450612640836125e4565b925060208a0199505060018101905061261c565b50829750879550505050505092915050565b6000602082019050818103600083015261268081846125f1565b905092915050565b61269181612092565b811461269c57600080fd5b50565b6000813590506126ae81612688565b92915050565b600080604083850312156126cb576126ca611fee565b5b60006126d98582860161200f565b92505060206126ea8582860161269f565b9150509250929050565b60006020820190506127096000830184612083565b92915050565b600082825260208201905092915050565b600061272b826124b6565b612735818561270f565b93506127458185602086016124d2565b61274e816122d6565b840191505092915050565b600060a08201905081810360008301526127738188612720565b905081810360208301526127878187612720565b90506127966040830186612083565b6127a3606083018561209e565b6127b06080830184611fba565b9695505050505050565b600080604083850312156127d1576127d0611fee565b5b60006127df8582860161200f565b92505060206127f08582860161200f565b9150509250929050565b6000819050919050565b600061281f61281a61281584612051565b6127fa565b612051565b9050919050565b600061283182612804565b9050919050565b600061284382612826565b9050919050565b61285381612838565b82525050565b600060208201905061286e600083018461284a565b92915050565b7f4e487b7100000000000000000000000000000000000000000000000000000000600052601160045260246000fd5b60006128ae82611fb0565b91507fffffffffffffffffffffffffffffffffffffffffffffffffffffffffffffffff82036128e0576128df612874565b5b600182019050919050565b7f4e487b7100000000000000000000000000000000000000000000000000000000600052602260045260246000fd5b6000600282049050600182168061293257607f821691505b602082108103612945576129446128eb565b5b50919050565b60008190508160005260206000209050919050565b60006020601f8301049050919050565b600082821b905092915050565b6000600883026129ad7fffffffffffffffffffffffffffffffffffffffffffffffffffffffffffffffff82612970565b6129b78683612970565b95508019841693508086168417925050509392505050565b60006129ea6129e56129e084611fb0565b6127fa565b611fb0565b9050919050565b6000819050919050565b612a04836129cf565b612a18612a10826129f1565b84845461297d565b825550505050565b600090565b612a2d612a20565b612a388184846129fb565b505050565b5b81811015612a5c57612a51600082612a25565b600181019050612a3e565b5050565b601f821115612aa157612a728161294b565b612a7b84612960565b81016020851015612a8a578190505b612a9e612a9685612960565b830182612a3d565b50505b505050565b600082821c905092915050565b6000612ac460001984600802612aa6565b1980831691505092915050565b6000612add8383612ab3565b9150826002028217905092915050565b612af6826124b6565b67ffffffffffffffff811115612b0f57612b0e6122e7565b5b612b19825461291a565b612b24828285612a60565b600060209050601f831160018114612b575760008415612b45578287015190505b612b4f8582612ad1565b865550612bb7565b601f198416612b658661294b565b60005b82811015612b8d57848901518255600182019150602085019450602081019050612b68565b86831015612baa5784890151612ba6601f891682612ab3565b8355505b6001600288020188555050505b505050505050565b60006020820190508181036000830152612bd98184612720565b905092915050565b7f4e487b7100000000000000000000000000000000000000000000000000000000600052603260045260246000fd5b7f4e6f7420736572766963652070726f7669646572000000000000000000000000600082015250565b6000612c4660148361270f565b9150612c5182612c10565b602082019050919050565b60006020820190508181036000830152612c7581612c39565b9050919050565b6000602082019050612c91600083018461209e565b92915050565b7f4e6f742061207472616465207061727469636970616e74000000000000000000600082015250565b6000612ccd60178361270f565b9150612cd882612c97565b602082019050919050565b60006020820190508181036000830152612cfc81612cc0565b9050919050565b7f547261646520616c726561647920636f6d706c65746564206f7220646973707560008201527f7465640000000000000000000000000000000000000000000000000000000000602082015250565b6000612d5f60238361270f565b9150612d6a82612d03565b604082019050919050565b60006020820190508181036000830152612d8e81612d52565b9050919050565b6000612da082611fb0565b9150612dab83611fb0565b9250828203905081811115612dc357612dc2612874565b5b92915050565b7f4f6e6c792073656c6c65722063616e20636f6d706c6574650000000000000000600082015250565b6000612dff60188361270f565b9150612e0a82612dc9565b602082019050919050565b60006020820190508181036000830152612e2e81612df2565b9050919050565b6000604082019050612e4a6000830185612083565b612e576020830184611fba565b9392505050565b600081519050612e6d81612688565b92915050565b600060208284031215612e8957612e88611fee565b5b6000612e9784828501612e5e565b91505092915050565b7f5472616e73666572206661696c65640000000000000000000000000000000000600082015250565b6000612ed6600f8361270f565b9150612ee182612ea0565b602082019050919050565b60006020820190508181036000830152612f0581612ec9565b9050919050565b6000612f1782611fb0565b9150612f2283611fb0565b9250828201905080821115612f3a57612f39612874565b5b92915050565b7f53657276696365206e6f74206163746976650000000000000000000000000000600082015250565b6000612f7660128361270f565b9150612f8182612f40565b602082019050919050565b60006020820190508181036000830152612fa581612f69565b9050919050565b7f43616e6e6f74207472616465207769746820796f757273656c66000000000000600082015250565b6000612fe2601a8361270f565b9150612fed82612fac565b602082019050919050565b6000602082019050818103600083015261301181612fd5565b9050919050565b600060ff82169050919050565b61302e81613018565b811461303957600080fd5b50565b60008151905061304b81613025565b92915050565b60006020828403121561306757613066611fee565b5b60006130758482850161303c565b91505092915050565b60008160011c9050919050565b6000808291508390505b60018511156130d5578086048111156130b1576130b0612874565b5b60018516156130c05780820291505b80810290506130ce8561307e565b9450613095565b94509492505050565b6000826130ee57600190506131aa565b816130fc57600090506131aa565b8160018114613112576002811461311c5761314b565b60019150506131aa565b60ff84111561312e5761312d612874565b5b8360020a91508482111561314557613144612874565b5b506131aa565b5060208310610133831016604e8410600b84101617156131805782820a90508381111561317b5761317a612874565b5b6131aa565b61318d848484600161308b565b925090508184048111156131a4576131a3612874565b5b81810290505b9392505050565b60006131bc82611fb0565b91506131c783613018565b92506131f47fffffffffffffffffffffffffffffffffffffffffffffffffffffffffffffffff84846130de565b905092915050565b600061320782611fb0565b915061321283611fb0565b925082820261322081611fb0565b9150828204841483151761323757613236612874565b5b5092915050565b60008151905061324d81611ff8565b92915050565b60006020828403121561326957613268611fee565b5b60006132778482850161323e565b91505092915050565b7f496e73756666696369656e742054494d4520746f6b656e730000000000000000600082015250565b60006132b660188361270f565b91506132c182613280565b602082019050919050565b600060208201905081810360008301526132e5816132a9565b9050919050565b60006060820190506133016000830186612083565b61330e6020830185612083565b61331b6040830184611fba565b94935050505056fea26469706673582212204d8f4d14e544e1befbb617b01431f3f188b3b3d93b69a02fa7bcd88fd724503464736f6c634300081c0033",
    "linkReferences": {},
    "deployedLinkReferences": {}
}